:020000040C00EE
:100000000008001001020008B1020008B102000857
:10001000B1020008B1020008B102000800000000AF
:10002000000000000000000000000000B102000815
:10003000B102000800000000B10200081929000800
:10004000B9430008B1020008B1020008B10200087B
:10005000B1020008B1020008B1020008B1020008B4
:10006000B1020008000000000000000000000000D5
:10007000B102000800000000B1020008B10200084F
:10008000B1020008B1020008B1020008B102000884
:10009000B1020008B1020008B1020008B102000874
:1000A000B1020008B1020008B1020008B102000864
:1000B000B1020008B1020008B1020008B102000854
:1000C000B1020008B1020008B1020008B102000844
:1000D000B1020008B1020008B1020008B102000834
:1000E000B1020008B1020008B1020008B102000824
:1000F000B1020008B1020008B1020008B102000814
:10010000B1020008B1020008B1020008B102000803
:10011000B1020008B1020008B1020008B1020008F3
:10012000B102000841040008B1020008B102000851
:10013000B1020008B1020008B1020008B1020008D3
:10014000B1020008B1020008B1020008B1020008C3
:10015000B1020008B1020008B1020008B1020008B3
:10016000000000000000000000000000000000008F
:10017000B1020008B1020008B1020008B102000893
:10018000B1020008B1020008B1020008B102000883
:10019000B1020008B1020008B1020008B102000873
:1001A000B1020008B1020008B1020008B102000863
:1001B000B1020008B1020008B1020008B102000853
:1001C000B1020008B102000809420008F941000824
:1001D000B1020008B1020008B102000800000000EE
:1001E000B1020008B1020008B1020008B102000823
:1001F000B102000800000000B10200080000000089
:10020000DFF88CD023488047234C244DAC4209DAD8
:1002100021686268A368043BA2BFC858D050FAE7BF
:100220000C34F3E71E4B1F4CA34208DA19685A68D6
:100230000020043AA4BF8850FBE70833F4E71A48CB
:1002400080471A4880470000307E000C00000020E4
:10025000BC010000EC7F000C00000030000000003A
:10026000307E000C0008001000000000307E000C02
:100270000008001000000000BC0100203C0300004A
:100280000000003000000000000800100000000026
:1002900000080010B50200084802000878020008B3
:1002A0007802000890020008D5580008614B000849
:1002B000FEE7000098B500AF054A4FF00053144622
:1002C0000FCB84E80F0000F005F804F079F998BD31
:1002D000C4FF002080B483B000AF72B6124B134A43
:1002E0009A60BFF34F8F62B60F4A0F4B5B6923F0E2
:1002F000080353610E4B03F5805314331B687B6076
:100300007B6823F00F037B607B6843F003037B6013
:10031000074B03F5805314337A681A600C37BD46D7
:100320005DF8047B704700BF00ED00E000000008AE
:100330000010005880B584B000AF2F4BDB6803F489
:100340008033002B3ED02D4BDB6803F00103002BE4
:1003500002D02B4BFB6002E004F028F9F860274B39
:100360001B6803F00403002B20D0244B9B6803F090
:1003700070631B0E0133BB60204B9B6803F4FE438C
:100380001B0A01337B601D4B9B6803F4FE031B0CAF
:1003900001333B60BB683A6802FB03F3FA68B2FBC7
:1003A000F3F37A6802FB03F3FB600DE0134B9B68E9
:1003B00003F07F0301333B60FA683B68B2FBF3F361
:1003C000FB6001E00E4BFB600B4BDB68DBB20133E3
:1003D000FA68B2FBF3F3FB60074B1B6903F0010300
:1003E0000133FA68B2FBF3F3FB60064AFB68136063
:1003F0001037BD4680BD00BF00460050104700507A
:1004000000366E01C0FF002080B500AF01F0D8FAC1
:1004100080BD00BF80B500AF01F0E6FA80BD00BF2F
:1004200080B400AF054B1B78DBB20133DAB2034B6B
:100430001A70BD465DF8047B704700BFC001002004
:1004400080B500AF044801F0B5FF044B1B680133D1
:10045000024A136080BD00BF1C000020BC010020C8
:1004600080B582B000AF78600C4B00221A600C4857
:1004700001F02EFF00BF094B1A687B689A42FAD33D
:1004800000BF074801F07EFF0346002BF9D1044866
:1004900001F03CFF0837BD4680BD00BFBC01002015
:1004A0001C00002080B400AF084B1B889BB20133B6
:1004B0009AB2064B1A80064B1B889BB201339AB244
:1004C000034B1A80BD465DF8047B7047C4010020D1
:1004D000C201002080B500AF134A13786FF3050303
:1004E0001370114A53786FF3050353700E4A9378D3
:1004F000102161F3040393700B4AD378042161F354
:100500000403D370084A53790B2161F30303537139
:10051000054B40F2E272DA80FFF77CFF024802F0FE
:100520006FFCFFF771FF80BDF001002080B582B045
:1005300002AF1A4800211A4A002302F04BFA024681
:10054000184B1A6015480121174A002302F042FA9D
:100550000246164B1A60154B1B68184602F0D8FA73
:1005600042F21070FFF77CFF04F01EF904F0BEF9B0
:10057000022300930E480F490022022305F06EFE6D
:10058000002000210A4A04F0D7F942F21070FFF768
:1005900067FFFFF79FFFBD4680BD00BFA08601003B
:1005A000C12000080402002021040008FC010020F2
:1005B000C8040020447B000890B589B004AF03460E
:1005C0003960FB7100237B730023FB81012001F064
:1005D00091FDFA7907F10D040123009300230193A3
:1005E00056480121234602F0AFFE00BF544B1B8842
:1005F0009BB25B0903F00103DBB2002B11D1504B1E
:100600001B889BB29B0903F00103DBB2002B08D1CE
:100610004B4B1B889BB2DB0903F00103DBB2002BC1
:10062000E4D0474B1A8822F020021A80002001F003
:1006300061FD434B1B889BB29B0903F00103DBB2B6
:10064000002B08D13E4B1B889BB2DB0903F0010352
:10065000DBB2002B0BD03A4B1A8822F040021A80F2
:10066000374B1A8822F080021A80FF2361E00120B4
:1006700001F040FDFA7907F10804022300930123F9
:100680000193012302932D480121234603F02EF804
:1006900000BF2B4B1B889BB21B0903F00103DBB28D
:1006A000002B11D1264B1B889BB29B0903F0010341
:1006B000DBB2002B08D1224B1B889BB2DB0903F075
:1006C0000103DBB2002BE4D01D4B1A8822F010028C
:1006D0001A80002001F00EFD194B1B889BB29B096C
:1006E00003F00103DBB2002B08D1154B1B889BB232
:1006F000DB0903F00103DBB2002B0BD0104B1A888F
:1007000022F040021A800E4B1A8822F080021A80D2
:10071000FF230EE07B7ADB08DBB2FB813B7A5B01D7
:100720009AB2FB8913439BB2FB813B68FA891A801A
:10073000002318461437BD4690BD00BF7C00002042
:10074000F8010020B0B500AF294B1B7E18462849A0
:10075000FFF732FF03461A46254B9A76244B1B8837
:1007600003F48053002B08D0214B1B886FEA0353FE
:100770006FEA13539AB21E4B1A801D4B1B88184602
:1007800004F062FB02460B46104619464FF0000289
:10079000184B04F0BFFB02460B461046194604F006
:1007A000CBFD0246124B5A60114B9C68104B5A68A5
:1007B0000F4B9B681046194604F012FE03461D4677
:1007C0000B4B1B7D184604F0C1FE03462846194614
:1007D00004F0C4FF03462046194604F003FE034616
:1007E0001A46034B5A60024B5B68014A9360B0BDE6
:1007F000000000200000B03F80B485B000AFF8607A
:100800000B467A60FB72FB7A9B08DBB21846FB7AD8
:100810009B08DBB21A46FB68043253F82220FB7AAD
:1008200003F00303DB001946F8238B40DB4302EAA5
:100830000301FB68021D43F82210FB685A6FFB7A24
:100840005B00194603238B40DB431A40FB685A6761
:10085000FB68374A934203D0FB68364A93420AD179
:10086000FB681A6EFB7A012101FA03F3DB431A409D
:10087000FB681A663CE07B685A68FB7A9A40FB6822
:100880005A60FB7ADB08DBB21846FB7ADB08DBB286
:100890001A46FB68103253F82220FB7A03F0070354
:1008A0009B00194607238B40DB4302EA0301FB68E8
:1008B00000F1100243F82210FB7ADB08DBB2184685
:1008C000FB7ADB08DBB21A46FB68103253F82220B1
:1008D0007B681B7A1946FB7A03F007039B0001FA39
:1008E00003F342EA0301FB6800F1100243F822100F
:1008F000FB7A9B08DBB21846FB7A9B08DBB21A46F0
:10090000FB68043253F822207B681B781946FB7A77
:1009100003F00303DB0001FA03F342EA0301FB687F
:10092000021D43F822101437BD465DF8047B704762
:10093000008E0248008F024880B400AF064B5B680F
:1009400003F00103002B14BF01230023DBB2184680
:10095000BD465DF8047B7047004A005080B400AF8C
:10096000034BD3F8C4301846BD465DF8047B70478E
:100970000040005080B582B000AF7860FFF7DCFF28
:10098000034683F00103DBB2002B3ED000F004FBF2
:10099000034683F00103DBB2002B01D000F0D2FA52
:1009A0007B681B8A184601F033F800BFFFF7D6FFBB
:1009B000034603F40063002BF8D1164A7B681B68DA
:1009C000136200BFFFF7CAFF034603F48053002BF6
:1009D000F8D1104A7B685B68536200BFFFF7BEFF27
:1009E000034603F40073002BF8D10A4A7B689B6826
:1009F000936100BFFFF7B2FF034603F48063002B4F
:100A0000F8D1044A7B68DB68D361002318460837B5
:100A1000BD4680BD004A005080B582B000AF78600E
:100A200000BFFFF79BFF034603F48043002BF8D180
:100A30000449044B1A697B6813430B610837BD46B0
:100A400080BD00BF004A005080B400AF034B1B685C
:100A50001846BD465DF8047B704700BFC0FF00200C
:100A600080B584B000AF7860FFF764FC0B4B1B6867
:100A70000B4AA2FB03239A0C7B6802FB03F37B6007
:100A80000023FB6003E000BFFB680133FB60FA68F2
:100A90007B689A42F7D31037BD4680BDC0FF002067
:100AA00083DE1B4380B483B000AF78600549054BFB
:100AB0009A687B6813438B600C37BD465DF8047BF6
:100AC000704700BF7440005080B400AF034B5B68B8
:100AD0001846BD465DF8047B704700BF7440005067
:100AE00080B483B000AF78600549054BDA687B6855
:100AF0001343CB600C37BD465DF8047B704700BFE5
:100B000074400050B0B584B002AF7860002000F0AF
:100B100085F800F017FA7B68DB79002B01D000F034
:100B200059FA7B685B7A184600F0F2F87B681B7A0A
:100B3000184600F0E1F97B681B7C184600F006F9C6
:100B40007B685B7C184600F029F97B689B7C184623
:100B500000F010F97B68DB7C184600F033F97B6805
:100B60009B79002B01D000F06FFA7B68DB78002BBB
:100B700002D100F0A9FA14E000F096FA7B68998897
:100B80007B68DA787B685B781D467B681B781C463F
:100B90007B689B780093084611462A46234600F05E
:100BA000A3FA7B68DB68B3F5803F03D14FF4803054
:100BB00000F034F8FFF7BEFB0837BD46B0BD00BFFC
:100BC00080B485B000AF78607B681B0FFB607B68EA
:100BD00023F07043BB60084AFB6852F82330064993
:100BE000FA6851F822201168BA680A431A6014376B
:100BF000BD465DF8047B70475C7B000880B500AFA4
:100C0000FFF722FF0246044B5B6903F0010322FA5F
:100C100003F3184680BD00BF0046005080B483B087
:100C200000AF78600649064BDB6823F480327B68AE
:100C30001343CB600C37BD465DF8047B704700BFA3
:100C40000046005080B483B000AF78600649064B80
:100C50009B6923F480327B6813438B610C37BD465C
:100C60005DF8047B704700BF0046005080B483B03D
:100C700000AF78600649064B5B6A23F440327B681C
:100C800013434B620C37BD465DF8047B704700BFD1
:100C90000046005080B483B000AF0346FB80FB8861
:100CA000002B08D10A4A0A4BDB6823F4807323F037
:100CB0000103D36007E0064A054BDB6843F4807309
:100CC00043F00103D3600C37BD465DF8047B7047E9
:100CD0001047005080B483B000AF0346FB7100BFE3
:100CE000094BD3F8C43003F00803002BF8D10749AF
:100CF000064BDB6823F04002FB791343CB600C37D3
:100D0000BD465DF8047B7047004000500043005032
:100D100080B483B000AF0346FB7100BF094BD3F82A
:100D2000C43003F00803002BF8D10749064BDB68F9
:100D300023F08002FB791343CB600C37BD465DF88E
:100D4000047B7047004000500043005080B483B0E3
:100D500000AF78600649064BDB6823F0FF027B6832
:100D6000013B1343CB600C37BD465DF8047B7047F5
:100D70000046005080B483B000AF78600649064B4F
:100D80001B6A23F001027B68013B13430B620C37A3
:100D9000BD465DF8047B70470046005080B483B0C8
:100DA00000AF78600649064B1B6923F001027B689F
:100DB000013B13430B610C37BD465DF8047B704764
:100DC0000046005080B483B000AF78600649064BFF
:100DD0005B6923F001027B68013B13434B610C37D5
:100DE000BD465DF8047B70470046005080B483B078
:100DF00000AF78600649064B9B6923F007027B68C9
:100E0000013B13438B610C37BD465DF8047B704793
:100E10000046005080B483B000AF78600649064BAE
:100E2000DB6923F03F027B68013B1343CB610C3746
:100E3000BD465DF8047B70470046005080B483B027
:100E400000AF78600649064B5B6A23F0FF027B68BF
:100E5000013B13434B620C37BD465DF8047B704782
:100E60000046005080B483B000AF0346FB71044AD3
:100E7000FB7953600C37BD465DF8047B704700BFBB
:100E80000046005080B483B000AF78603960194AE2
:100E9000184B5B6943F001035361164A154B5B69BC
:100EA00043F01003536113493B68013B1A027B680E
:100EB000013B1B0613434B610E4A0E4B5B6943F02B
:100EC000400353610B4A0B4B5B6923F010035361E2
:100ED000084A084B5B6943F48023536100BF054B0C
:100EE0001B6903F00403002BF9D00C37BD465DF8F5
:100EF000047B70471047005080B582B000AF0346B6
:100F0000FB710F4A0E4B5B6843F480135360FB790F
:100F1000012B0ED10A4A0A4B5B6823F480135360FD
:100F20006420FFF79DFD064A054B5B6843F40023F0
:100F300053606420FFF794FD0837BD4680BD00BFB5
:100F40001047005080B500AF114B1B6803F0010340
:100F5000002B0CD10E4A0E4B5B6843F0010353602B
:100F600000BF0B4B1B6803F00103002BF9D0094BAA
:100F70001B6803F40073002B08D0064A054B9B68DE
:100F800043F4007393609620FFF76AFD80BD00BFB5
:100F9000004200500044005080B400AF0B4B1B686F
:100FA00003F00103002B07D0094B1B6803F4007307
:100FB000002B01D1012300E0002303F00103DBB289
:100FC0001846BD465DF8047B704700BF00420050E4
:100FD0000044005080B500AF00BF194BD3F8C430B7
:100FE00003F08003002BF8D1164A164BDB6923F07F
:100FF0003003D36100BF124BD3F8C43003F00803B1
:10100000002BF8D10F4A0F4BDB6843F00803D36085
:1010100000BF0B4BD3F8C43003F00203002BF8D110
:10102000084A084B5B6843F0080353603220FFF71F
:1010300017FD044B1B6803F00803002BE8D180BDAB
:101040000040005000430050B0B500AF134A134BAE
:101050005B6823F480335360114D114B5B6823F4BC
:10106000702424F0300403F0A1FA02460D4BA3FBD8
:1010700002231B0D013B1B0423436B60074A074BF4
:101080005B6823F40033536000BF044B1B6803F418
:101090006073B3F5607FF8D1B0BD00BF104700505A
:1010A000004700506BCA5F6B80B400AF054A054B28
:1010B0005B6823F4803323F002035360BD465DF880
:1010C000047B70471047005080B400AF054A054BC1
:1010D0005B6843F4803343F002035360BD465DF820
:1010E000047B70471047005090B587B000AFBA60DE
:1010F0007B600346FB810B467B73FB891846FFF739
:10110000C9FD7B7B012B40F09580FB89002B08D12A
:1011100003F04CFA0346184604F014FA03467B61C8
:1011200001E0514B7B61786804F00CFA03461846E5
:10113000796904F05FFA03461C46B86804F002FAC5
:1011400003462046194604F009FB03467B61786993
:1011500004F0A0FB0246454BA3FB02235B0D3B6161
:10116000434A434B5B6843F001035360404A404BA2
:101170005B6843F0100353603D493D4B9A683D4B1B
:1011800013407A68013A12021A433B69013B1B047F
:101190001A43BB68013B1B0613438B60344A344B34
:1011A0005B6843F040035360314A314B5B6823F086
:1011B000100353602E4A2E4B5B6843F48023536028
:1011C00000BF2B4B1B6803F00403002BF9D0284A07
:1011D000274B5B6823F00103536000BF244B1B685F
:1011E00003F00103002BF9D1786904F053FB0346A7
:1011F0001B0A214AA2FB03239B0A3B61BA6A3B6993
:101200009A4202D2386900F03BF8786904F042FB58
:101210000346DB09194AA2FB0323DB0A3B61BA6AD6
:101220003B699A4202D2386900F02AF8B86A00F0A5
:1012300027F815E00E490E4B9B6823F07F02BB6A2E
:10124000013B13438B600A4A094B5B6843F001037F
:10125000536000BF064B1B6803F00103002BF9D05D
:101260001C37BD4690BD00BF001BB74B819F5E166B
:1012700010470050FF8080F0C7541E012FE3BE00CE
:1012800080B582B000AF78600749074B9B6823F4B4
:10129000FE027B68013B1B0413438B603220FFF787
:1012A000DFFB0837BD4680BD1047005080B485B0D5
:1012B00000AF786039600023FB6002E0FB68013317
:1012C000FB60FB687A6822FA03F303F00103002B4A
:1012D00002D1FB681F2BF1D9FB68202B02D101231F
:1012E000FB7206E00649FB683A6841F823200023B8
:1012F000FB72FB7A18461437BD465DF8047B7047D5
:101300000802002080B586B000AF786000237B61C2
:10131000FFF7DAFB38611CE07B693A6922FA03F3D4
:1013200003F00103002B11D00D4A7B6952F82330E2
:10133000FB60FB68002B01D0FB6898477B690122AA
:1013400002FA03F31846FFF7CBFB05E07B69013394
:101350007B617B691F2BDFD91837BD4680BD00BF7D
:101360000802002080B582B000AF78607B680D4A2B
:10137000934204D14FF40060FFF722FC0EE07B683B
:10138000094A934203D10948FFF71AFC06E07B683B
:10139000074A934202D10748FFF712FC0837BD46BF
:1013A00080BD00BF08000340080002488000001014
:1013B000084002480001001080B582B000AF78609C
:1013C0001020FFF74FFD786800F0D8F80837BD46C9
:1013D00080BD00BF80B584B000AF78600B46FB7065
:1013E0007868FFF7E9FF7B681B68FB60FB6823F404
:1013F0004043FB60FB789B03FA681343FB607B6808
:10140000FA681A601037BD4680BD00BF80B483B053
:1014100000AF786039603B681A687B685A613B6846
:101420005B79C3F34013DBB21A057B685A603B68F3
:101430001B79C3F30303DBB21A467B685A623B682D
:101440005B79C3F30303DBB21A467B681A623B681D
:101450005B79C3F30013DBB21A467B689A613B6881
:101460001B79C3F30313DBB21A467B68DA620C37CD
:10147000BD465DF8047B704780B483B000AF7860F0
:1014800039607B681A693B681A437B681A610C37BC
:10149000BD465DF8047B704780B483B000AF7860D0
:1014A0000B46FB707B68D3F8A020FB7822FA03F38D
:1014B00003F00103002B14BF01230023DBB2184605
:1014C0000C37BD465DF8047B704700BF80B487B021
:1014D00000AF78600B46FB701346BB707B68D3F897
:1014E000A830FB60FB78092B2CD801A252F823F01E
:1014F0001915000819150008231500082315000800
:101500004515000845150008451500084515000853
:101510002D1500083915000803233B6100237B616A
:1015200016E00C233B6102237B6111E04FF4407312
:101530003B6108237B610BE04FF440633B610A236E
:101540007B6105E04FF440533B610C237B6100BF9E
:101550003B69DB43FA681340FB60BA787B6902FAA7
:1015600003F3FA681343FB607B68FA68C3F8A820AA
:101570001C37BD465DF8047B704700BF80B582B064
:1015800000AF78607B680E4A934203D10420FFF7D6
:1015900017FB12E07B680B4A934203D10820FFF748
:1015A0000FFB0AE07B68084A934203D11020FFF743
:1015B00007FB02E00548FFF703FB0837BD4680BD87
:1015C00000C0004000000140004001400100001048
:1015D00080B483B000AF78607B689B6BDBB223F094
:1015E0007F03DBB218460C37BD465DF8047B7047BD
:1015F00080B483B000AF786039607B68DA6C3B6898
:101600001A437B68DA640C37BD465DF8047B70478B
:1016100080B582B000AF78603960786800F048FA31
:101620007B680E4A5A633B689B887868194600F0CD
:1016300017F83B681B687868194600F02BF87B6840
:101640004FF4A0629A637B684FF0FF32DA647B68E4
:1016500000221A640837BD4680BD00BF03033F0760
:1016600080B483B000AF78600B467B807B8803F446
:101670007843B3F5704F03D17A887B68DA6303E06F
:101680007B881A027B68DA630C37BD465DF8047B01
:10169000704700BF80B584B000AF78603960012327
:1016A000FB733B68144A93420AD8786839680A2267
:1016B00000F04AFA0346002B19D10023FB7316E011
:1016C0003B680E4A934210D87B68DB6B43F40032D0
:1016D0007B68DA6378683968192200F035FA0346C6
:1016E000002B04D10023FB7301E00123FB73FB7B80
:1016F00018461037BD4680BDA0860100801A06003E
:1017000080B584B000AF78600B467B8013467B7059
:101710007B8843F480639BB2FB607B78012B03D111
:10172000FB6843F00103FB607B68D3F8083103F0EA
:10173000E063002B10D100BF7868FFF749FF034634
:10174000802BF9D078684FF40051FFF751FF7B6888
:10175000FA68C3F8802003E07B68FA68C3F8802148
:101760001037BD4680BD00BF80B584B000AF786043
:101770000B467B8013467B707B8843F4A0639BB24F
:10178000FB607B78012B03D1FB6843F00103FB6016
:101790007B68D3F8083103F0E063002B10D100BF61
:1017A0007868FFF715FF0346802BF9D078684FF46F
:1017B0000051FFF71DFF7B68FA68C3F8802003E043
:1017C0007B68FA68C3F880211037BD4680BD00BF32
:1017D00080B582B000AF78607B68D3F8083103F041
:1017E000E063002B11D100BF7868FFF7F1FE0346DC
:1017F000802BF9D078684FF40051FFF7F9FE7B6831
:101800004FF4C062C3F8802004E07B684FF4C062EC
:10181000C3F880210837BD4680BD00BF80B582B0C7
:1018200000AF78600B46FB707B68D3F8083103F09B
:10183000E063002B10D100BF7868FFF7C9FE0346B4
:10184000802BF9D078684FF40051FFF7D1FEFA7879
:101850007B68C3F8802003E0FA787B68C3F88021B6
:101860000837BD4680BD00BF80B582B000AF78604C
:101870007B68D3F8083103F0E063002B11D100BF7F
:101880007868FFF7A5FE0346802BF9D078684FF4FF
:101890000051FFF7ADFE7B684FF40072C3F8802063
:1018A00004E07B684FF40072C3F880210837BD461E
:1018B00080BD00BF80B582B000AF78607B68D3F890
:1018C000083103F0E063002B11D100BF7868FFF707
:1018D0007FFE0346802BF9D078684FF40051FFF764
:1018E00087FE7B684FF44072C3F8802004E07B6879
:1018F0004FF44072C3F880210837BD4680BD00BF59
:1019000080B485B000AF78607B68D3F80C3103F009
:10191000E063002B03D17B685B6DFB7303E07B68A6
:10192000D3F81C31FB73FB7B18461437BD465DF8BA
:10193000047B704780B483B000AF786039603B6847
:10194000002B08DA7B681A6C3B6823F000431A43CB
:101950007B681A6405E07B68DA6B3B681A437B6836
:10196000DA630C37BD465DF8047B704780B483B002
:1019700000AF786039603B68002B09DA7B681A6C2D
:101980003B6823F00043DB431A407B681A6406E09F
:101990007B68DA6B3B68DB431A407B68DA630C37A1
:1019A000BD465DF8047B704780B400AF034BD3F8AD
:1019B000C4301846BD465DF8047B704700400050B7
:1019C00080B500AF00BFFFF7EFFF034603F480735D
:1019D000002BF8D1034A034B5B6843F001035360CB
:1019E00080BD00BF004A005080B500AF00BFFFF7C8
:1019F000DBFF034603F48073002BF8D1034A034B4B
:101A00005B6823F00103536080BD00BF004A0050B3
:101A100080B582B000AF0346FB8000BFFFF7C4FF74
:101A2000034603F48073002BF8D10549044B5B682F
:101A30009AB2FB881B0413434B600837BD4680BD38
:101A4000004A005080B582B000AF786000BFFFF759
:101A5000ABFF034603F40063002BF8D1094A7B680F
:101A60001B68136200BFFFF79FFF034603F4805318
:101A7000002BF8D1034A7B685B6853620837BD4688
:101A800080BD00BF004A005080B483B000AF7860D2
:101A9000064B1A6A7B681A60044B5A6A7B685A6064
:101AA0000C37BD465DF8047B704700BF004A00500C
:101AB00080B582B000AF78607B681A4A934203D049
:101AC0007B68194A934203D11848FFF74BFC16E094
:101AD0007B68174A934203D07B68164A934203D12E
:101AE0001548FFF73FFC0AE07B68144A934203D095
:101AF0007B68134A934202D11248FFF733FC7B689C
:101B00000322DA6000BF7B68DB6803F00103002B6F
:101B1000F9D07B681B6C23F00F027B681A640837CE
:101B2000BD4680BD000003400002034008000340A2
:101B30000000024800020248080002480040024833
:101B4000004202480840024880B58EB000AFF860FD
:101B5000B9607A60BB68632B58D97B68002B55D07D
:101B6000FFF74CF802462E4BA3FB02235B093B62B6
:101B7000BB682B4AA2FB03235B09BB600123FB620A
:101B80000123BB6240F2FF337B6240F2FF333B63D1
:101B900022E03B6A3A6B02FB03F2BB68796801FB07
:101BA00003F3B2FBF3F3FB61FB699B0ABB61FB69C7
:101BB000C3F309037B61BB69B3F5806F09D27A690E
:101BC0007B6A9A4205D27B697B62BB69BB623B6BD5
:101BD000FB623B6B013B3B633B6B002BD9D1FB6A48
:101BE00043F40042FB681A61FB685A690D4B1340CD
:101BF0007A68013A92021A43BB6A013B1B041A43FA
:101C0000FB685A61002387F8373002E0012387F828
:101C1000373097F8373018463837BD4680BD00BF9B
:101C20001F85EB51EF8000FC80B485B000AFF860F9
:101C3000B9603B601346FB71FB68D3F8083123F0B1
:101C4000E062FB68C3F80821FB68D3F80821094B60
:101C500013403A681102BA681143FA7912060A432E
:101C60001A43FB68C3F808211437BD465DF8047BAE
:101C7000704700BFC0C0FFF880B485B000AFF86007
:101C8000B9603B601346FB71FB68D3F80C3123F05D
:101C9000E062FB68C3F80C21FB68D3F80C210A4B07
:101CA00013403A681102BA681143FA7912060A43DE
:101CB000134343F08052FB68C3F80C211437BD4630
:101CC0005DF8047B704700BFC0C0FFEF80B485B0F3
:101CD00000AFF8600B467A60FB72FB68D3F80C31FA
:101CE00023F0E062FB68C3F80C21FB68D3F80C31E9
:101CF00023F47C527B681B021A43FB7A1B061A43AF
:101D0000FB68C3F80C211437BD465DF8047B7047AF
:101D100080B485B000AFF8600B467A60FB72FB6858
:101D20009A69FB7A072101FA03F3DB431A40FB7A35
:101D3000796801FA03F31A43FB689A611437BD46C8
:101D40005DF8047B704700BF80B485B000AFF860D9
:101D50000B467A60FB72FB68D3F80821FB7A0721F7
:101D600001FA03F3DB431A40FB7A796801FA03F3C3
:101D70001A43FB68C3F808211437BD465DF8047B9D
:101D8000704700BF80B485B000AFF8600B467A6042
:101D9000FB72FB68D3F80C21FB7A072101FA03F3ED
:101DA000DB431A40FB7A796801FA03F31A43FB68B4
:101DB000C3F80C211437BD465DF8047B704700BFA3
:101DC00080B485B000AF786039603B78C3F302031C
:101DD000DBB21A46BB78C3F30403DBB21B04134324
:101DE000FB607B68FA68C3F8F021FB78C3F300134B
:101DF000DBB21A07FB78C3F38103DBB29B061A43FD
:101E0000FB78C3F34013DBB25B071343FB607B68D3
:101E1000D3F8F021FB68134343F000427B68C3F81A
:101E2000F0211437BD465DF8047B704780B500AFE4
:101E30000120FEF7C5FE80BD80B582B000AF78609E
:101E40003960FFF7F3FF3B685A697B681A603B68AB
:101E50005B6843F400427B68C3F880203B689A6863
:101E60007B68C3F8A0203B68DA687B68C3F8A420CD
:101E70003B681A697B68C3F880223B681A687B68F4
:101E8000C3F8B8200837BD4680BD00BF80B485B018
:101E900000AF78607B68D3F8803043F000427B6805
:101EA000C3F880200023FB7316E0FB7B0E4A52F838
:101EB0002330BB60BB68D3F8803003F44033002B81
:101EC00007D000BFBB68D3F8803003F08053002BED
:101ED000F8D1FB7B0133FB73FB7B032BE5D9143774
:101EE000BD465DF8047B70476C7B000880B582B00E
:101EF00000AF786039603B68786859680022002339
:101F000000F028F83B68786859680122002300F047
:101F100021F83B68786899680022012300F01AF8DC
:101F20003B68786899680122012300F013F83B6848
:101F30001A697B68C3F880203B68DA687B68C3F85D
:101F4000B8203B6878681968FFF73AFF0837BD4644
:101F500080BD00BF80B48DB000AFF860B9603B6059
:101F60001346FB71FB79002B13D10823FB624FF45E
:101F7000E0637B620023BB621F233B623B7AC3F3B7
:101F80000403DBB2FB617B7AC3F30203DBB2FB76B3
:101F900013E01823FB624FF0E0637B621023BB6207
:101FA0004FF4F8133B62BB7AC3F30403DBB2FB616B
:101FB000FB7AC3F30203DBB2FB76FB683A68283294
:101FC00053F822307B617B6ADB437A6913407B6183
:101FD000FA7EFB6A02FA03F37A6913437B613B6A78
:101FE000DB437A6913407B61BB6AFA6902FA03F347
:101FF0007A6913437B61FB683A682832796943F850
:1020000022103437BD465DF8047B704780B485B03C
:1020100000AF78600B46FB707B68D3F88030FB60C4
:10202000FB6823F00303FB60FB78FA681343FB6053
:102030007B68FA68C3F880201437BD465DF8047BDE
:10204000704700BF80B487B000AF7860154B7B61EC
:10205000154B1B68002B08D1134B144A1A60124B06
:102060001A687B691344124A13600F4B1B683B616B
:102070000D4B1B681A467B681344073323F0070394
:10208000FB600B4B1B68FA689A4201D3002303E004
:10209000054AFB6813603B6918461C37BD465DF86E
:1020A000047B7047C8FA0000C8010020F804002033
:1020B000CC01002080B400AFBD465DF8047B7047C2
:1020C00080B582B000AF7860084B1A8842F0800279
:1020D0001A80074801F0BAFE054801F0EFFE0448F7
:1020E00001F0F2F80837BD4680BD00BFF8010020BE
:1020F0007C00002080B582B000AF0346FB71FB7905
:10210000002B05D0064B1B68184600F079FD04E053
:10211000034B1B68184600F091FD0837BD4680BD93
:102120000402002080B400AF044B1A8842F0200261
:102130001A80BD465DF8047B704700BFF80100209F
:1021400080B400AF044B1A8842F010021A80BD46DA
:102150005DF8047B704700BFF801002080B483B0B5
:1021600000AF78600B46FB707B68DA68FB78012172
:1021700001FA03F31A437B68DA600C37BD465DF859
:10218000047B704780B483B000AF78607B689B6845
:1021900003F00103002B14BF01230023DBB2184618
:1021A0000C37BD465DF8047B704700BF80B483B038
:1021B00000AF78607B680122DA600C37BD465DF8BD
:1021C000047B704780B483B000AF78607B681B6984
:1021D00043F001027B681A610C37BD465DF8047B51
:1021E000704700BF80B483B000AF78607B681B6924
:1021F00043F002027B681A610C37BD465DF8047B30
:10220000704700BF80B483B000AF78600B467B801E
:102210007A887B685A630C37BD465DF8047B70474B
:1022200080B483B000AF78600B467B807A887B688F
:10223000DA630C37BD465DF8047B704780B483B029
:1022400000AF78600B46FB707B68D3F8A420FB7866
:10225000012101FA03F31A437B68C3F8A4200C3769
:10226000BD465DF8047B704780B483B000AF7860F2
:102270000B46FB707B68D3F8B020FB78012101FA94
:1022800003F31A437B68C3F8B0200C37BD465DF8F2
:10229000047B704780B584B000AF78600023FB7387
:1022A0007B6893F8263083F00103DBB2002B09D062
:1022B0007B6893F82130002B04D1786800F08CF80B
:1022C0000346FB73FB7B18461037BD4680BD00BF3D
:1022D00080B584B000AF78607B6893F82630002B1F
:1022E0000CD07B6893F82130002B04D17B685B69AC
:1022F0001846FFF75BFF0023FB7301E00123FB732C
:10230000FB7B18461037BD4680BD00BF80B584B04A
:1023100000AF7860786800F01DF80346002B11D0FC
:102320007B6893F82630002B0CD07B6893F8213023
:10233000002B04D17B685B691846FFF743FF00233D
:10234000FB7301E00123FB73FB7B18461037BD468E
:1023500080BD00BF80B584B000AF78600023FB7300
:102360007B6893F82130002B06D17B685B691846A7
:10237000FFF708FF0346FB73FB7B18461037BD468B
:1023800080BD00BF80B584B000AF78600023FB73D0
:102390007B6893F82130002B07D17B685B69184676
:1023A0000021FFF779F80346FB73FB7B18461037D3
:1023B000BD4680BD80B582B000AF78607B6893F881
:1023C0002130002B05D17B685B6918460021FFF79F
:1023D0004BFF0837BD4680BD80B584B000AF786044
:1023E0007B681B69184601F0FDFF0346FB737B68A1
:1023F0001B699A687B681B7E10461946FFF7AEFE84
:102400007B685A697B68DB6910461946FEF7FEFF58
:10241000786800F02DF87B6893F82530002B0FD0FA
:102420007B685A697B6893F82030104600211A4671
:10243000FFF74CF87B685B6918460021FFF7FEFE4A
:102440007B685B691846FFF7CDFE7B68012283F845
:1024500026207B6893F82430002B04D07B685B69CE
:102460001846FFF7A3FEFB7B18461037BD4680BD1C
:1024700080B582B000AF78607B685A697B685B8CFE
:1024800010461946FFF7BEFE7B685B6918460021BF
:10249000FFF7C6FE7B681B699A687B68DB6810469D
:1024A0001946FEF7E9FF0837BD4680BD80B400AF8E
:1024B000044BDB6803F4E0631B0A1846BD465DF875
:1024C000047B704700ED00E080B483B000AF0346AA
:1024D0003960FB7197F90730002B0BDA0D49FB7956
:1024E00003F00F03043B3A68D2B29200D2B20B441D
:1024F0001A7609E0084997F907303A68D2B2920093
:10250000D2B20B4483F800230C37BD465DF8047B40
:10251000704700BF00ED00E000E100E080B489B04A
:1025200000AFF860B9607A60FB6803F00703FB61F5
:10253000FB69C3F10703062B28BF0623BB61FB69B8
:102540000633062B02D9FB69013B00E000237B61C7
:10255000BB69012202FA03F3013B1A46BB681A4029
:102560007B699A407B69012101FA03F3013B19461B
:102570007B680B40134318462437BD465DF8047B47
:10258000704700BF80B582B000AF78607B68013BC8
:10259000B3F1807F01D301230FE00A4A7B68013B3E
:1025A00053604FF0FF303F21FFF78EFF054B0022B5
:1025B0009A60044B07221A60002318460837BD466C
:1025C00080BD00BF10E000E090B486B000AF78603E
:1025D0000023FB736B497A681346DB0013449B00AE
:1025E0000B4418331B68BB60674B1B68002B09D179
:1025F0007A681346DB0013449B00624A1344624A24
:102600001360BBE0604B1B687B61BB683B61ABE068
:102610007B699B691A463B699B1A3B613B69002BAE
:102620007ADC7B695B68002B26D07B6959687A6805
:102630001346DB0013449B00524A13440B607B6932
:10264000596850487A681346DB0013449B000344E2
:1026500059604C497A681346DB0013449B000B44D5
:102660007A691A607A681346DB0013449B00454A76
:102670001A447B695A601CE0434B196841487A68E8
:102680001346DB0013449B00034419603E4B19685A
:102690007A681346DB0013449B003A4A13444B60AC
:1026A0007A681346DB0013449B00364A1344364ACB
:1026B000136034497A681346DB0013449B000B44D3
:1026C0001B689A693B69D1182E487A681346DB006B
:1026D00013449B000344183319602A497A6813464F
:1026E000DB0013449B000B44196826487A681346A4
:1026F000DB0013449B0003441B689869214C7A68F3
:102700001346DB0013449B00234418331B68C31A91
:102710008B610123FB7324E03B69002B21DD7B6986
:102720001B68002B1DD117497A681346DB00134440
:102730009B000B447A695A607A681346DB001344A5
:102740009B00104A1A447B691A6039690D487A68FF
:102750001346DB0013449B00034418331960012324
:10276000FB737B691B687B617B69002B06D0FB7B5D
:1027700083F00103DBB2002B7FF44AAF1837BD466C
:1027800090BC704788020020D801002080B485B03A
:1027900000AF78607A681346DB0013449B00294A37
:1027A0001344FB60FB685B68002B07D1FB681B6868
:1027B000002B03D1244B00221A603DE0FB685B68CC
:1027C000002B14D1FB681B681F4A13601E4B1B684B
:1027D00000225A601C4B1B681B4A12689169FA68F8
:1027E00092690A449A61FB6800221A6024E0FB683F
:1027F0001B68002B07D1FB685B6800221A60FB682E
:1028000000225A6018E0FB685B68FA6812681A6078
:10281000FB681B68FA6852685A60FB681B68FA68B4
:1028200012689169FA6892690A449A61FB68002209
:102830001A60FB6800225A601437BD465DF8047BBD
:10284000704700BF88020020D801002080B582B008
:1028500000AF2F4B1B687B6050E07B6893F8203003
:10286000002B13D07B685B691846FFF78FFF7B68EE
:1028700000225A737B685B691A4601239340DA434E
:10288000244B1B681340234A136034E07B681B7B96
:10289000002B12D17B685B7B012B2CD17B685B69A1
:1028A0001846FFF773FF7B6802225A737B689B68A8
:1028B0007A681269104698471DE07B681B7B012BE4
:1028C00018D17B685B7B012B15D17B685B6918464F
:1028D000FFF75CFF7B68DA697B689A617B685B69FC
:1028E0001846FFF771FE7B689B687A68126910468C
:1028F000984700E009E0064B1B687B607B68002B73
:1029000003D07B689B69002BA7D00837BD4680BDEC
:10291000D8010020DC01002080B582B000AF0E4B52
:102920001B687B600D4B1B6801330C4A13607B688E
:10293000002B0ED07B689B69012B05D97B689B69B6
:102940005A1E7B689A6104E07B6800229A61FFF757
:102950007DFF0837BD4680BDD8010020E001002082
:1029600080B584B000AF78600023FB737B681B7870
:1029700083F00103DBB2002B20D0134B00221A603E
:102980001248FFF7FFFD0346FB73FB7B012B15D0BD
:10299000FFF78CFD034618463F210022FFF7BEFDDE
:1029A00003464FF0FF301946FFF78EFD084B00221B
:1029B0001A607B6801221A700023FB73FB7B1846A8
:1029C0001037BD4680BD00BFD8010020C0D4010033
:1029D000DC01002080B489B000AFF8607A603B6011
:1029E0000B46FB720023FB610023BB6100237B616C
:1029F000FB68B3F57A7F02D20023FB617BE0002302
:102A0000BB6175E0BB6901229A403E4B1B681340D5
:102A1000002B6AD1BB6901229A403A4B1B681343D1
:102A2000384A13603849BA691346DB0013449B00E7
:102A30000B441033BA695A603349BA691346DB0054
:102A400013449B000B440833FA7A1A712E49BA6971
:102A50001346DB0013449B000B44083302225A71D7
:102A6000FB682A4AA2FB03239B097B617B69591CF3
:102A70002548BA691346DB0013449B00034418330E
:102A800019602149BA691346DB0013449B000B44CB
:102A900018337A695A601C49BA691346DB0013443B
:102AA0009B000B4408337A681A601749BA691346C9
:102AB000DB0013449B000B4410333A681A60124940
:102AC000BA691346DB0013449B000B4400225A6092
:102AD0000D49BA691346DB0013449B000B440022E6
:102AE0001A60BB690133FB6105E0BB690133BB615F
:102AF000BB690F2B86D9FB6918462437BD465DF8A4
:102B0000047B7047DC01002088020020D34D621056
:102B100080B584B000AF78600123FB737B685A1ED8
:102B20001A491346DB0013449B000B4408335B79BE
:102B3000022B26D17B685A1E7B68591E13480B4610
:102B4000DB000B449B00034418335B68591C0F489F
:102B50001346DB0013449B000344183319607B6861
:102B60005A1E0A491346DB0013449B000B440833EA
:102B700001225A717B68013B1846FFF725FD0023AF
:102B8000FB73FB7B18461037BD4680BD88020020D2
:102B900080B584B000AF78600023FB737B685A1E59
:102BA00016491346DB0013449B000B4408335B7942
:102BB000002B02D10123FB731BE07B685A1E0F49D7
:102BC0001346DB0013449B000B4408335B79012B55
:102BD0000FD17B685A1E09491346DB0013449B0042
:102BE0000B44083302225A717B68013B1846FFF7F9
:102BF000CDFDFB7B18461037BD4680BD8802002006
:102C000080B588B000AF7860EFF310837B617B699B
:102C10003B6172B63B69FB617868FFF779FF034659
:102C2000FB76FB69FB60FB68BB60BB6883F31088C5
:102C3000FB7E18462037BD4680BD00BF80B588B0FA
:102C400000AF7860EFF310837B617B693B6172B604
:102C50003B69FB617868FFF79BFF0346FB76FB69E6
:102C6000FB60FB68BB60BB6883F31088FB7E184683
:102C70002037BD4680BD00BF80B582B000AF786010
:102C80007868FDF70FFF0837BD4680BD80B500AFFF
:102C9000FEF796FE80BD00BF80B584B000AF7860BF
:102CA0000023FB730123BB731F4801F039FB03466C
:102CB000BB73BB7B002B32D17B681B7A83F0010393
:102CC000DBB2002B29D07B681B681846FDF752FE4B
:102CD0000346FB73FB7B002B1CD1786800F026F8C1
:102CE00003467B737B7B002B04D0786800F060F890
:102CF0000346FB73FB7B002B11D17B685B681B7861
:102D0000012B01D1FFF7C2FF7B6801221A72002359
:102D1000BB7304E00123BB7301E00023BB73BB7BE7
:102D200018461037BD4680BD8800002080B584B0AD
:102D300000AF78600023FB737B685B689B781A4662
:102D40007B685B68DB785B001A437B685B681B7998
:102D50009B001A437B685B685B79DB001A437B68E6
:102D60005B689B795B011A437B685B68DB799B013D
:102D70001343BB60BB68002B07D0B868FDF74CFE5F
:102D80000220FFF779FF0123FB737B685B681B7AE6
:102D9000012B08D14FF48070FDF73EFE0420FFF7B1
:102DA0006BFF0123FB73FB7B18461037BD4680BDCC
:102DB00080B584B000AF78600023BB730023FB7341
:102DC0007B685B68DB680220194601F0E5FA034680
:102DD000BB737B685B681B7A012B08D17B685B68DF
:102DE0001B690420194601F0D7FA0346FB73BA7B2E
:102DF000FB7B1340DBB218461037BD4680BD00BFD9
:102E000080B586B000AF78600023FB757B68DB88F7
:102E10007B827B685B79C3F30303DAB27B7C62F36A
:102E200003037B747B68DB78C3F30403DAB2FB7BB8
:102E300062F30403FB737B689B78C3F30403DAB289
:102E4000BB7B62F30403BB737B685B78C3F305034E
:102E5000DAB27B7B62F305037B737B681B78C3F379
:102E60000503DAB23B7B62F305033B73FB7B03F0A4
:102E70001F03DBB2002B25D07B7C03F00F03DBB2FA
:102E8000002B1FD0FB7BC3F30403DBB2013BDBB29F
:102E900003F01F03DAB2FB7B62F30403FB737B7C5A
:102EA000C3F30303DBB2013BDBB203F00F03DAB27F
:102EB0007B7C62F303037B7407F10C031846FEF777
:102EC000C1FD01E00123FB75FB7D18461837BD46A7
:102ED00080BD00BF80B582B000AF78607868FEF733
:102EE000D3FD7B68DB78C3F30403DBB20133DBB2D1
:102EF00003F01F03D9B27A68D37861F30403D37067
:102F00007B685B79C3F30303DBB20133DBB203F00D
:102F10000F03D9B27A68537961F303035371083709
:102F2000BD4680BD80B400AF044BDB6803F4E063B2
:102F30001B0A1846BD465DF8047B704700ED00E0B3
:102F400080B483B000AF0346FB71084997F907309E
:102F50005B09FA7902F01F02012000FA02F241F83F
:102F600023200C37BD465DF8047B704700E100E08C
:102F700080B483B000AF03463960FB7197F9073026
:102F8000002B0BDA0D49FB7903F00F03043B3A6881
:102F9000D2B29200D2B20B441A7609E0084997F9EE
:102FA00007303A68D2B29200D2B20B4483F80023C1
:102FB0000C37BD465DF8047B704700BF00ED00E0B4
:102FC00000E100E080B489B000AFF860B9607A60D9
:102FD000FB6803F00703FB61FB69C3F10703062BE2
:102FE00028BF0623BB61FB690633062B02D9FB69A8
:102FF000013B00E000237B61BB69012202FA03F37D
:10300000013B1A46BB681A407B699A407B690121E3
:1030100001FA03F3013B19467B680B401343184642
:103020002437BD465DF8047B704700BF80B582B091
:1030300000AF78607B681B785BB21846FFF780FFB3
:103040000837BD4680BD00BF90B585B000AF786041
:10305000164801F08DFA0346FB73FB7B002B1ED153
:103060007B681C78FFF75EFF01467B685B781A4639
:103070007B689B78084611461A46FFF7A3FF024675
:1030800063B218461146FFF773FF7B68DB78002BAD
:1030900002D07868FFF7CAFF0023FB7301E0012329
:1030A000FB73FB7B18461437BD4690BD040100201E
:1030B00080B483B000AF786039607B681A6C3B687D
:1030C0001A437B681A640C37BD465DF8047B704771
:1030D00080B483B000AF786039607B681A6C3B685D
:1030E000DB431A407B681A640C37BD465DF8047BED
:1030F000704700BF80B483B000AF78607B689B6B83
:10310000DBB223F07F03DBB218460C37BD465DF817
:10311000047B704780B483B000AF786039607B680F
:103120009A6E3B684FF4803101FA03F31A437B68CF
:103130009A660C37BD465DF8047B704780B483B057
:1031400000AF786039607B68D3F808213B68DB43C7
:103150001A407B68C3F808210C37BD465DF8047B34
:10316000704700BF80B483B000AF78607B68D3F84D
:10317000183143F400427B68C3F818210C37BD4670
:103180005DF8047B704700BF80B483B000AF786007
:103190007B68D3F8143103F48053002B14BF012350
:1031A0000023DBB218460C37BD465DF8047B704740
:1031B00080B483B000AF78607B68D3F8143103F437
:1031C0000063002B14BF01230023DBB218460C3729
:1031D000BD465DF8047B704780B483B000AF786073
:1031E00039607B68D3F80C213B681A437B68C3F8CD
:1031F0000C210C37BD465DF8047B704780B483B06A
:1032000000AF786039607B68D3F80C213B68DB4302
:103210001A407B68C3F80C210C37BD465DF8047B6F
:10322000704700BF80B483B000AF78607B68D3F88C
:10323000183143F480427B68C3F818210C37BD462F
:103240005DF8047B704700BF80B483B000AF786046
:103250007B68D3F8143103F00803002B14BF01235B
:103260000023DBB218460C37BD465DF8047B70477F
:1032700080B582B000AF78600B46FB70FB78786851
:1032800010211A46FEF744FD0837BD4680BD00BF39
:1032900080B483B000AF78607B689B6C18460C37B5
:1032A000BD465DF8047B704780B483B000AF7860A2
:1032B00039607B68DA6C3B681A437B68DA640C37E8
:1032C000BD465DF8047B704780B584B000AF786080
:1032D0007B68002B0ED00B4801F04AF90346FB73C4
:1032E000FB7B002B08D17B685B685B6898470023F9
:1032F000FB7301E00123FB73FB7B18461037BD46CF
:1033000080BD00BF0401002080B584B000AF7860AC
:1033100039607B681B681846FFF7BAFFF860FA68E7
:103320003B68134018461037BD4680BD80B582B05B
:1033300000AF786039607B681B6818463968FFF712
:10334000B3FF0837BD4680BD80B586B000AFF860DA
:103350007A603B600B46FB720223FB75FB689B683F
:103360003B61FB7A83F00103DBB2002B08D03B69A1
:1033700093F82830DBB283F00103DBB2002B05D1D8
:103380003B68002B02D03B6A002B02D10123FB7566
:1033900040E03B6900229A613B6993F82630DBB23A
:1033A00083F00103DBB2002B34D03B693A681A602A
:1033B0003B693A6A9A603B690022DA603B69012204
:1033C00083F8262097F824203B69DA61FB681B68A4
:1033D00018464FF08041FEF7ADFAFB681A683B696A
:1033E00093F8243010461946FFF742FFFB7A002B72
:1033F00005D0F8687968002200F010FB08E0FB684F
:103400001A683B6993F8243010461946FFF782FE8C
:103410000023FB75FB7D18461837BD4680BD00BFF5
:1034200080B584B000AF78600023FB737B689B6835
:10343000BB6078684FF4B071FFF766FF0346002B5E
:1034400011D07B681B6818464FF08041FFF776FE6D
:103450007B681B6818464FF40051FFF739FE786807
:1034600000F078FC0BE1BB689B69002B70D17B6896
:103470005B681B7F002B48D0BB68DA68BB689B6821
:103480009A4224D218E0BB68DA68BB689B689A420B
:1034900011D27B681968BB681A68BB68DB68134483
:1034A0001B7808461946FEF7B9F9BB68DB685A1C59
:1034B000BB68DA6000E00AE07B681B681846FFF72B
:1034C00063FE034683F00103DBB2002BDBD100BFB8
:1034D0007B681B681846FFF76BFE034683F0010309
:1034E000DBB2002BF4D1BB68DA68BB689B689A42F8
:1034F00040F0C580BB6893F82830DBB2002B00F0A9
:10350000BE80786800F0BEF8B9E0BB68DA68BB68D6
:103510009B689A4211D27B681968BB681A68BB68BD
:10352000DB6813441B7808461946FEF777F9BB6839
:10353000DB685A1CBB68DA60A1E0BB6893F82830EE
:10354000DBB2002B00F09B80786800F09BF896E0DF
:103550007B685B681B7F002B60D07B685B685B7F50
:10356000002B1CD07B685B681B7F1A4601239340AD
:103570007A685268527FD340002B07D17B685B6822
:103580001B7F1A4601239340DBB206E07B685B6831
:103590005B7F1A4601239340DBB2FB7301E00223F9
:1035A000FB737B681B6818464FF08041FFF7C6FD30
:1035B00027E0BB68DA68BB689B689A4220D2BB6888
:1035C000DB685A1CBB689B689A4209D1BB681B6ABE
:1035D000012B05D17B681B681846FEF76BF904E0E8
:1035E0007B681B681846FEF73FF9BB68DB685A1C0E
:1035F000BB68DA60BB68DA68FB7B9A4201D30CE0F7
:103600000BE07B681B681846FFF7BEFD034683F09E
:103610000103DBB2002BCCD122E021E07B681B68E8
:1036200018464FF40051FFF753FDBB68DB685A1C86
:10363000BB689B689A4209D1BB681B6A012B05D104
:103640007B681B681846FEF735F904E07B681B6849
:103650001846FEF709F9BB68DB685A1CBB68DA60DC
:103660007B689B68DA687B689B689B689A4206D196
:103670007B681B6818464FF08041FEF777F91037DA
:10368000BD4680BD80B584B000AF78607B689B6824
:10369000FB607B681B6818464FF08041FEF766F9B7
:1036A000FB68DB69012B08D1FB68002283F8282026
:1036B0007B681B681846FEF78BF800BF7B681B68A9
:1036C0001846FFF717FD0346802BF7D0FB68002252
:1036D00083F826207B685B689B68002B03D07B689F
:1036E0005B689B6898471037BD4680BD80B586B043
:1036F00000AFF8607A603B600B46FB720223FB75FB
:10370000FB689B683B61FB68002B14D0FB7A83F05D
:103710000103DBB2002B08D03B6993F82830DBB201
:1037200083F00103DBB2002B05D13B68002B02D0F4
:103730003B6A002B02D10123FB7542E03B6993F801
:103740002730DBB283F00103DBB2002B39D03B69B9
:1037500001229A613B693A685A603B693A6A1A6188
:103760003B693A681A603B693A6A9A603B69012290
:1037700083F826203B69012283F8272097F824202C
:103780003B69DA6197F828203B691A623B6900229D
:103790005A613B690022DA60FB685B685B7F002B43
:1037A00007D0FB7AF86819467A683B6A00F00EF891
:1037B00005E0FB7AF86819467A6800F0A3F8002360
:1037C000FB75FB7D18461837BD4680BD80B586B0B9
:1037D00000AFF8607A603B600B46FB72FB689B6849
:1037E0007B61FB681B681846FFF71CFDF8683968A9
:1037F00000F0F4FAFB681B6818464FF0C041FFF771
:10380000EBFCFB7A002B15D0FB681B6818464FF0C9
:103810008041FEF78FF8FB681A687B6993F82430C3
:1038200010461946FFF724FDF8687968012200F078
:10383000F5F864E0FB685B681B7F002B37D0FB6802
:103840001B6818464FF08041FFF778FC23E07B6946
:10385000DA687B699B689A421BD27B69DB685A1CD9
:103860007B699B689A4209D17B691B6A012B05D150
:10387000FB681B681846FEF71DF804E0FB681B6830
:103880001846FDF7F1FF7B69DB685A1C7B69DA603B
:1038900001E000BF33E0FB681B681846FFF774FCCB
:1038A000034683F00103DBB2002BD0D127E0FB6895
:1038B0001B6818464FF40051FFF70AFC7B69DA6871
:1038C0007B699B689A421AD27B69DB685A1C7B69C8
:1038D0009B689A4209D17B691B6A012B05D1FB6861
:1038E0001B681846FDF7E6FF04E0FB681B681846F6
:1038F000FDF7BAFF7B69DB685A1C7B69DA60183711
:10390000BD4680BD80B586B000AFF8600B467A60DA
:10391000FB72FB689B687B61FB681B6818464FF471
:103920004041FFF7C5FBFB7A002B15D0FB681B68F5
:1039300018464FF08041FDF7FDFFFB681A687B6970
:1039400093F8243010461946FFF792FCF86879681E
:10395000012200F063F85DE0FB685B681B7F002BD1
:1039600022D1FB681B6818464FF40051FFF7B0FBEB
:103970007B69DB685A1C7B699B689A4209D17B6929
:103980001B6A012B05D1FB681B681846FDF792FFE7
:1039900004E0FB681B681846FDF766FF7B69DB687F
:1039A0005A1C7B69DA6035E0FB681B6818464FF0EB
:1039B0008041FFF7C3FB22E07B69DA687B699B6883
:1039C0009A421BD27B69DB685A1C7B699B689A42CE
:1039D00009D17B691B6A012B05D1FB681B6818465E
:1039E000FDF768FF04E0FB681B681846FDF73CFF25
:1039F0007B69DB685A1C7B69DA6000E00AE0FB68DF
:103A00001B681846FFF7C0FB034683F00103DBB2D7
:103A1000002BD1D11837BD4680BD00BF80B584B022
:103A200000AFF860B9601346FB71FB689B6893F8C0
:103A30002830DBB2002B0AD0FB681968BB689AB249
:103A4000FB79084611461A46FDF78EFE0EE0FB682C
:103A50009B68012283F82820FB681968BB689AB22A
:103A6000FB79084611461A46FDF74AFE1037BD4657
:103A700080BD00BF90B585B000AF78600023FB73B8
:103A80007B689B68BB60BB6893F82730DBB2002B78
:103A900000F02A817B685B685B7F002B00F0DB8095
:103AA00022E0BB685A68BB685B69D4187B681B68F6
:103AB0001846FDF725FF03462370BB685B695A1C57
:103AC000BB685A61BB685A69BB681B699A420BD1D3
:103AD000BB68002283F827207B681B6818464FF0DC
:103AE000C041FFF78BFB0AE07B681B681846FFF7B5
:103AF000ABFB034683F00103DBB2002BD1D1BB68E3
:103B00005A69BB681B699A4280F08780BB681A6952
:103B1000BB685B69D31A7868194600F05FF97B6867
:103B20005B681B7F002B1CD07B685B681B7F1A4681
:103B3000012393407A685268527FD340002B07D10B
:103B40007B685B681B7F1A4601239340DBB206E06B
:103B50007B685B685B7F1A4601239340DBB2BB73D3
:103B600001E00223BB737B685B681B7F002B39D0AD
:103B70002BE0BB68DA68BB689B689A4224D2BB68BA
:103B8000DB685A1CBB689B689A4209D1BB681B6AF8
:103B9000012B05D17B681B681846FDF78BFE04E0FE
:103BA0007B681B681846FDF75FFEBB68DB685A1C24
:103BB000BB68DA60FB7B0133FB73FA7BBB7B9A4209
:103BC00003D30023FB730CE00BE07B681B681846F3
:103BD000FFF7DAFA034683F00103DBB2002BC8D10A
:103BE0001BE01AE0BB68DB685A1CBB689B689A4202
:103BF00009D1BB681B6A012B05D17B681B6818467D
:103C0000FDF758FE04E07B681B681846FDF72CFEA4
:103C1000BB68DB685A1CBB68DA60BB685A69BB6862
:103C20001B699A4260D17B681B6818464FF0C041FF
:103C3000FFF7E4FA7B681B6818464FF44041FFF732
:103C400047FABB6893F82830DBB2002B4CD0786879
:103C500000F04EF848E0BB685A68BB685B69D4184E
:103C60007B681B681846FDF74BFE03462370BB6854
:103C70005B695A1CBB685A61BB685A69BB681B699F
:103C80009A4221D2BB68DA68BB689B689A422BD201
:103C9000BB68DA68BB689B68013B9A4209D1BB6884
:103CA0001B6A012B05D17B681B681846FDF702FED5
:103CB00004E07B681B681846FDF7D6FDBB68DB682F
:103CC0005A1CBB68DA600FE07B681B6818464FF42B
:103CD0004041FFF7FDF9BB6893F82830DBB2002BB9
:103CE00002D0786800F004F81437BD4690BD00BFDC
:103CF00080B584B000AF78607B689B68FB60FB6830
:103D0000DB69012B08D1FB68002283F828207B683F
:103D10001B681846FDF75CFD00BF7B681B681846F2
:103D2000FFF7E8F90346802BF7D0FB68002283F801
:103D30002720FB68002283F826207B685B68DB680D
:103D4000002B03D07B685B68DB6898471037BD4663
:103D500080BD00BF80B584B000AF78607B681B6811
:103D60001846FFF795FAF8607B685B681B69002BC3
:103D70000CD0FB6803F02003002B07D078682021CB
:103D8000FFF7D4FA7B685B681B6998477B685B68C0
:103D90005B69002B0CD0FB6803F04003002B07D0BD
:103DA00078684021FFF7C2FA7B685B685B699847D7
:103DB0007B685B689B69002B0DD0FB6803F4807304
:103DC000002B08D078684FF48071FFF7AFFA7B685A
:103DD0005B689B6998471037BD4680BD80B584B04D
:103DE00000AF786039607B685B685B7F1A460123AF
:103DF0009340BB737B685B681B7F002B07D07B689D
:103E00005B681B7F1A4601239340FB7301E001238B
:103E1000FB73BA7BFB7B934228BF1346DBB21A4687
:103E20003B68934228BF13467B737B6819687B68A5
:103E30005B685A7F7B7B013BDBB2084611461A4622
:103E4000FDF744FF1037BD4680BD00BF80B582B08E
:103E500000AF78607B689B68002283F826207B682F
:103E60009B6800221A607B689B68002283F82820E8
:103E70007B685B681B7F002B0CD07B681B68184637
:103E80004FF08041FFF75AF97B681B681846FFF72F
:103E900069F906E07B681B6818464FF40051FFF78C
:103EA00017F97B681B6818464FF08041FDF75EFDEF
:103EB000002318460837BD4680BD00BF80B582B0DC
:103EC00000AF78607B689B68002283F827207B68BE
:103ED0009B68002283F826207B689B6800225A603A
:103EE0007B689B68002283F828207B685B685B7F87
:103EF000002B07D07B681B6818464FF0C041FFF7C6
:103F00007DF906E07B681B6818464FF44041FFF7D7
:103F1000DFF87B681B6818464FF08041FDF726FDEF
:103F2000002318460837BD4680BD00BF80B400AFEF
:103F3000044BDB6803F4E0631B0A1846BD465DF8DA
:103F4000047B704700ED00E080B483B000AF03460F
:103F5000FB71084997F907305B09FA7902F01F02F3
:103F6000012000FA02F241F823200C37BD465DF82B
:103F7000047B704700E100E080B483B000AF0346EB
:103F80003960FB7197F90730002B0BDA0D49FB798B
:103F900003F00F03043B3A68D2B29200D2B20B4452
:103FA0001A7609E0084997F907303A68D2B29200C8
:103FB000D2B20B4483F800230C37BD465DF8047B76
:103FC000704700BF00ED00E000E100E080B489B080
:103FD00000AFF860B9607A60FB6803F00703FB612B
:103FE000FB69C3F10703062B28BF0623BB61FB69EE
:103FF0000633062B02D9FB69013B00E000237B61FD
:10400000BB69012202FA03F3013B1A46BB681A405E
:104010007B699A407B69012101FA03F3013B194650
:104020007B680B40134318462437BD465DF8047B7C
:10403000704700BF80B483B000AF78600B46FB7060
:104040001346BB70F878FB787A6806339B001344FC
:104050005B6823F00702BB781A437968831D9B00D5
:104060000B445A600C37BD465DF8047B704700BFB7
:1040700080B483B000AF786039607B68D3F80821E2
:104080003B681A437B68C3F808210C37BD465DF8CE
:10409000047B704780B483B000AF786039607B6880
:1040A000D3F80C213B681A437B68C3F80C210C370A
:1040B000BD465DF8047B704780B483B000AF786084
:1040C0000B46FB707B681B6C23F00F02FB781A43D6
:1040D0007B681A640C37BD465DF8047B704700BFEF
:1040E00080B582B000AF786078680421FFF7E4FF04
:1040F0000837BD4680BD00BF80B588B000AF4FF027
:104100008043FB614FF0C043BB61374A07F10C03AA
:1041100007CA83E80700344A3B4607CA83E807001A
:1041200032483349FDF774FA304800210122FFF785
:1041300081FF2E4801210022FFF77CFF2B48102130
:1041400004220123FDF770FD284810210322FDF70A
:10415000FBFD2648F969FFF78BFF24480021042264
:104160000F23FDF789FD214810210222FDF70AFEE9
:104170001E4813210222FDF705FE1C48B969FFF70E
:1041800089FF1A48FFF7ACFF07F10C03194800211B
:104190001A46FCF731FB3B46164802211A46FCF74B
:1041A0002BFBFFF7C3FE034618463F210022FFF713
:1041B0000DFF034663201946FFF7DEFEFFF7B6FE4C
:1041C000034618463F210022FFF700FF0346622006
:1041D0001946FFF7D1FE6320FFF7B6FE6220FFF716
:1041E000B3FE2037BD4680BDD07B000800400248AA
:1041F000A87B00080085024880B500AF0148FFF7A2
:104200000FF980BD7C00002080B500AF0148FFF7AA
:1042100031FC80BD7C00002080B400AF044BDB6823
:1042200003F4E0631B0A1846BD465DF8047B704743
:1042300000ED00E080B483B000AF0346FB71084995
:1042400097F907305B09FA7902F01F02012000FAA2
:1042500002F241F823200C37BD465DF8047B70471D
:1042600000E100E080B483B000AF03463960FB7129
:1042700097F90730002B0BDA0D49FB7903F00F0398
:10428000043B3A68D2B29200D2B20B441A7609E0EB
:10429000084997F907303A68D2B29200D2B20B447B
:1042A00083F800230C37BD465DF8047B704700BFE0
:1042B00000ED00E000E100E080B489B000AFF860FC
:1042C000B9607A60FB6803F00703FB61FB69C3F127
:1042D0000703062B28BF0623BB61FB690633062BA9
:1042E00002D9FB69013B00E000237B61BB6901222D
:1042F00002FA03F3013B1A46BB681A407B699A40F5
:104300007B69012101FA03F3013B19467B680B40ED
:10431000134318462437BD465DF8047B704700BF41
:1043200080B584B000AF78601A4800F021F90346E8
:10433000FB73FB7B002B26D17B681B7983F0010389
:10434000DBB2002B21D0FFF767FF01467B681B68BB
:104350001B781A467B681B685B78084611461A462C
:10436000FFF7AAFF034600201946FFF77BFF7B6893
:104370001B689B78002B02D00020FFF75BFF7B6857
:1043800001221A7101E00123FB73FB7B18461037F1
:10439000BD4680BD0401002080B584B000AF7860C8
:1043A000396078683968FCF781FF0346FB73FB7B53
:1043B00018461037BD4680BD80B500AF0020FCF721
:1043C000A1FF80BD80B483B000AF78607B68DB68FC
:1043D00043F480727B68DA600C37BD465DF8047B7D
:1043E000704700BF80B582B000AF78607B685B7BB0
:1043F00083F00103DBB2002B0FD07B689A687B68E7
:104400001B7B10461946FCF7E5FF7B689B68184646
:10441000FFF7D8FF7B6801225A730023184608373C
:10442000BD4680BD80B483B000AF786039607B68E2
:10443000D3F880203B681033194601238B401A4380
:104440007B68C3F880200C37BD465DF8047B70475D
:1044500080B584B000AF78607B681B7E022B49D1A9
:104460007B685A697B681B6910461946FDF7E4FCB6
:104470000023FB602FE07B68FA6853F8223019684C
:104480007B68FA6853F822305B6808461946FDF7E6
:104490002DFD7B68FA6853F822301B68184603210B
:1044A000FDF7B4FD7B68FA6853F822301B7A83F07D
:1044B0000103DBB2002B05D07B685B691846F96805
:1044C000FFF7B0FF7B68FA6853F8223000225A7277
:1044D000FB680133FB60FB68032BCCD97B685B7EF8
:1044E000002B04D07B685B691846FDF7CFFC7B6826
:1044F00000221A767B681B7E18461037BD4680BDA9
:1045000080B582B000AF78607B6859687B681A7AA2
:104510007B681B68084611461A46FCF76DF90023B4
:1045200018460837BD4680BD80B485B000AF7860BE
:104530007B6803F00703FB600C4BDB68BB60BA6869
:104540004FF6FF031340BB60FB681A02BB681343BE
:1045500043F0BF6343F40033BB60044ABB68D360DD
:104560001437BD465DF8047B704700BF00ED00E0E6
:1045700080B584B000AF78607B681B7983F001035D
:10458000DBB2002B0BD07B681B681B781846FFF74B
:10459000CBFF7B6801221A710023FB7301E000232B
:1045A000FB73FB7B18461037BD4680BD80B400AF5F
:1045B000024B1846BD465DF8047B7047001BB700F0
:1045C00080B500AF0C48FCF79DFA0020FCF782FB99
:1045D0000020FCF737FB0420FCF708FC02204021F8
:1045E000FCF750FC0020FCF741FB0120FCF726FC07
:1045F0000120FCF70FFC80BD4C7C000880B485B026
:1046000000AFF8600B467A60FB72FB7A7A689A40DA
:10461000FB685A601437BD465DF8047B704700BFE5
:1046200080B584B000AF78607B685B7C83F0010369
:10463000DBB2002B20D00023FB7315E07B681A68E7
:10464000FB7BDB00134419687B681A68FB7BDB008B
:1046500013441A797B680433084611461A46FCF75E
:10466000CBF8FB7B0133FB737B681B7CFA7B9A42A4
:10467000E4D37B6801225A74002318461037BD46E4
:1046800080BD00BF80B584B000AF78600B467B80F2
:104690007B681B68BB600023FB7323E0FB7B01226C
:1046A00002FA03F39AB27B8813409BB2002B09D025
:1046B000BB681A68BB681B79104619460122FFF7D0
:1046C0009DFF09E0BB681A68BB681B791046194654
:1046D0004FF48032FFF792FFBB680833BB60FB7B6F
:1046E0000133FB737B681B7CFA7B9A42D6D310376D
:1046F000BD4680BD80B582B000AF0023FB71FB7961
:10470000002B04D12048FEF7DFFD0346FB71FB7947
:10471000002B04D11D48FDF7BDFD0346FB71FB795D
:10472000002B04D11A48FEF78FFC0346FB71FB797E
:10473000002B04D11748FFF7E3FE0346FB71FB791A
:10474000002B04D11448FEF7A7FA0346FB71FB794E
:10475000002B04D11148FFF77BFE0346FB71FB7968
:10476000002B04D10E48FFF75BFF0346FB71FB797A
:10477000002B04D10B48FEF7F3F80346FB71FB79DD
:1047800018460837BD4680BD7C0000201C00002074
:10479000A47B0008F800002044000020D000002086
:1047A0000C010020E401002080B582B000AF41F28E
:1047B0008830FBF755FE00237B600DE04A4810214E
:1047C000FFF760FF48480021FFF75CFF6420FBF71C
:1047D00047FE7B6801337B607B68092BEEDD41F28D
:1047E0008830FBF73DFE40481221FFF74BFF3E4863
:1047F0000221FFF747FF3C481221FFF743FF3A48E9
:104800000221FFF73FFF38481B21FFF73BFF3648E7
:104810000B21FFF737FF6420FBF722FE32481021FF
:10482000FFF730FF30480021FFF72CFF2E481C21F6
:10483000FFF728FF2C480C21FFF724FF0520FBF78A
:104840000FFE29481021FFF71DFF27480021FFF721
:1048500019FF25481121FFF715FF23480121FFF714
:1048600011FF4FF4FA70FBF7FBFD1F481021FFF713
:1048700009FF1D480021FFF705FF1B481221FFF724
:1048800001FF19480221FFF7FDFE4FF4FA70FBF714
:10489000E7FD15481021FFF7F5FE13480021FFF74B
:1048A000F1FE11481621FFF7EDFE0F480621FFF734
:1048B000E9FE4FF47A70FBF7D3FD00233B600DE077
:1048C00009481021FFF7DEFE07480021FFF7DAFE56
:1048D0006420FBF7C5FD3B6801333B603B68052B5B
:1048E000EEDD0837BD4680BD0C01002080B500AF6D
:1048F00010481021FFF7C6FE0E480021FFF7C2FE48
:104900000C481121FFF7BEFE0A480121FFF7BAFE4D
:1049100008481021FFF7B6FE06480021FFF7B2FE57
:1049200004481221FFF7AEFE02480221FFF7AAFE5B
:1049300080BD00BF0C01002080B584B000AF0346ED
:104940003A60FB710B46BB800023FB810023BB81D7
:10495000FB79012B01D00023FB71BB8943F00803D5
:10496000BB81FB79002B04D1BB8903F00B03BB8116
:1049700003E0BB8943F00403BB81BB88282B05D827
:10498000BB881B099AB2BB891343BB81BB8943F027
:1049900010039BB23A481946FFF774FEBB8903F037
:1049A000EF039BB236481946FFF76CFEBB8803F055
:1049B0000F03BB81BB8943F010039BB230481946FB
:1049C000FFF760FEBB8903F0EF039BB22C4819464A
:1049D000FFF758FE0023FB8141E0FB893A6813444E
:1049E0001B781B09DBB2BB81BB8943F020039BB260
:1049F00023481946FFF746FEBB8943F010039BB2DC
:104A00001F481946FFF73EFEBB8903F0EF039BB238
:104A10001B481946FFF736FEFB893A6813441B789A
:104A20009BB203F00F03BB81BB8943F020039BB211
:104A300013481946FFF726FEBB8943F010039BB2CB
:104A40000F481946FFF71EFEBB8903F0EF039BB228
:104A50000B481946FFF716FEFB890133FB81FB89E2
:104A60003A6813441B78002B02D0FB89272BB4D95A
:104A700003480021FFF706FE1037BD4680BD00BF8A
:104A80000C0100202DE9F04786B006AF1F48FEF765
:104A900021FA1E4BDB889A461C4B5B79C3F3030358
:104AA000DBB29946194BDB78C3F30403DBB29846BB
:104AB000164B9B78C3F30403DBB21E46134B5B78A3
:104AC000C3F30503DBB21D46104B1B78C3F305038C
:104AD000DBB21C460E4B5B68184600F0C7F9024675
:104AE0000B46CDF80080019602950394CDE904238E
:104AF0000848094952464B4601F0B0FB002000210E
:104B0000044AFFF719FFBD46BDE8F087F001002019
:104B100000000020C8040020987C000880B483B006
:104B200000AF78600B46FB70FB784FF001129A40A3
:104B30007B685A600C37BD465DF8047B704700BF48
:104B400080B582B000AF78607B685A687B681B7A5A
:104B500010461946FFF7E2FF0837BD4680BD00BF8B
:104B600080B582B000AFFFF7C5FD0346FB71FB794E
:104B7000012B00D1FEE7FBF7D9FCFBF7E3FDFFF7C4
:104B800081FF00BF054B1B78DBB2002BFAD0034B33
:104B900000221A700248FFF7D3FFEEE7C0010020A1
:104BA000F800002081F0004102E000BF83F00043E4
:104BB00030B54FEA41044FEA430594EA050F08BFB8
:104BC00090EA020F1FBF54EA000C55EA020C7FEA7C
:104BD000645C7FEA655C00F0E2804FEA5454D4EBF9
:104BE0005555B8BF6D420CDD2C4480EA020281EAC3
:104BF000030382EA000083EA010180EA020281EAFB
:104C00000303362D88BF30BD11F0004F4FEA01314C
:104C10004FF4801C4CEA113102D0404261EB41015B
:104C200013F0004F4FEA03334CEA133302D05242E1
:104C300063EB430394EA050F00F0A780A4F101049D
:104C4000D5F1200E0DDB02FA0EFC22FA05F28018D7
:104C500041F1000103FA0EF2801843FA05F35941BD
:104C60000EE0A5F120050EF1200E012A03FA0EFC3C
:104C700028BF4CF0020C43FA05F3C01851EBE37166
:104C800001F0004507D54FF0000EDCF1000C7EEB83
:104C900000006EEB0101B1F5801F1BD3B1F5001FC1
:104CA0000CD349085FEA30004FEA3C0C04F10104E0
:104CB0004FEA445212F5800F80F09A80BCF1004F09
:104CC00008BF5FEA500C50F1000041EB045141EA8B
:104CD000050130BD5FEA4C0C404141EB010111F48C
:104CE000801FA4F10104E9D191F0000F04BF014637
:104CF0000020B1FA81F308BF2033A3F10B03B3F115
:104D000020020CDA0C3208DD02F1140CC2F10C02A4
:104D100001FA0CF021FA02F10CE002F11402D8BF02
:104D2000C2F1200C01FA02F120FA0CFCDCBF41EACE
:104D30000C019040E41AA2BF01EB0451294330BD9D
:104D40006FEA04041F3C1CDA0C340EDC04F114047A
:104D5000C4F1200220FA04F001FA02F340EA030051
:104D600021FA04F345EA030130BDC4F10C04C4F197
:104D7000200220FA02F001FA04F340EA0300294677
:104D800030BD21FA04F0294630BD94F0000F83F4C1
:104D9000801306BF81F480110134013D4EE77FEAA4
:104DA000645C18BF7FEA655C29D094EA050F08BFF0
:104DB00090EA020F05D054EA000C04BF19461046D1
:104DC00030BD91EA030F1EBF0021002030BD5FEA15
:104DD000545C05D14000494128BF41F0004130BD3D
:104DE00014F580043CBF01F5801130BD01F0004591
:104DF00045F0FE4141F470014FF0000030BD7FEA04
:104E0000645C1ABF194610467FEA655C1CBF0B46FE
:104E1000024650EA013406BF52EA033591EA030F15
:104E200041F4002130BD00BF90F0000F04BF00210D
:104E3000704730B54FF4806404F132044FF0000540
:104E40004FF0000150E700BF90F0000F04BF0021B9
:104E5000704730B54FF4806404F1320410F000451F
:104E600048BF40424FF000013EE700BF42004FEA1A
:104E7000E2014FEA31014FEA02701FBF12F07F4397
:104E800093F07F4F81F06051704792F0000F14BF94
:104E900093F07F4F704730B54FF4607401F00045D8
:104EA00021F0004120E700BF50EA010208BF70472F
:104EB00030B54FF000050AE050EA010208BF704724
:104EC00030B511F0004502D5404261EB41014FF48D
:104ED000806404F132045FEA915C3FF4DCAE4FF091
:104EE00003025FEADC0C18BF03325FEADC0C18BF78
:104EF000033202EBDC02C2F1200300FA03FC20FAC9
:104F000002F001FA03FE40EA0E0021FA02F1144415
:104F1000C1E600BF70B54FF0FF0C4CF4E06C1CEA2A
:104F200011541DBF1CEA135594EA0C0F95EA0C0F9F
:104F300000F0DEF82C4481EA030621EA4C5123EA12
:104F40004C5350EA013518BF52EA033541F4801141
:104F500043F4801338D0A0FB02CE4FF00005E1FBF4
:104F600002E506F00042E0FB03E54FF00006E1FB3E
:104F700003569CF0000F18BF4EF0010EA4F1FF0481
:104F8000B6F5007F64F5407404D25FEA4E0E6D41C1
:104F900046EB060642EAC62141EA55514FEAC520D2
:104FA00040EA5E504FEACE2EB4F1FD0C88BFBCF54E
:104FB000E06F1ED8BEF1004F08BF5FEA500E50F1FF
:104FC000000041EB045170BD06F0004646EA0101C5
:104FD00040EA020081EA0301B4EB5C04C2BFD4EBF7
:104FE0000C0541EA045170BD41F480114FF0000EF0
:104FF000013C00F3AB8014F1360FDEBF002001F05E
:10500000004170BDC4F10004203C35DA0C341BDCD7
:1050100004F11404C4F1200500FA05F320FA04F0A9
:1050200001FA05F240EA020001F0004221F00041DD
:1050300010EBD37021FA04F642EB06015EEA430E50
:1050400008BF20EAD37070BDC4F10C04C4F1200580
:1050500000FA04F320FA05F001FA04F240EA020033
:1050600001F0004110EBD37041F100015EEA430E04
:1050700008BF20EAD37070BDC4F1200500FA05F224
:105080004EEA020E20FA04F301FA05F243EA0203A3
:1050900021FA04F001F0004121FA04F220EA0200B2
:1050A00000EBD3705EEA430E08BF20EAD37070BDF8
:1050B00094F0000F0FD101F00046400041EB0101D8
:1050C00011F4801F08BF013CF7D041EA060195F0BA
:1050D000000F18BF704703F00046520043EB030374
:1050E00013F4801F08BF013DF7D043EA0603704761
:1050F00094EA0C0F0CEA135518BF95EA0C0F0CD06C
:1051000050EA410618BF52EA4306D1D181EA0301B1
:1051100001F000414FF0000070BD50EA410606BFAB
:105120001046194652EA430619D094EA0C0F02D1F0
:1051300050EA013613D195EA0C0F05D152EA033635
:105140001CBF104619460AD181EA030101F0004153
:1051500041F0FE4141F470014FF0000070BD41F09C
:10516000FE4141F4780170BD70B54FF0FF0C4CF476
:10517000E06C1CEA11541DBF1CEA135594EA0C0F95
:1051800095EA0C0F00F0A7F8A4EB050481EA030EE2
:1051900052EA03354FEA013100F088804FEA0333C9
:1051A0004FF0805545EA131343EA12634FEA022297
:1051B00045EA111545EA10654FEA00260EF0004158
:1051C0009D4208BF964244F1FD0404F5407402D2AA
:1051D0005B084FEA3202B61A65EB03055B084FEA3B
:1051E00032024FF480104FF4002CB6EB020E75EB38
:1051F000030E22BFB61A754640EA0C005B084FEA60
:105200003202B6EB020E75EB030E22BFB61A7546DC
:1052100040EA5C005B084FEA3202B6EB020E75EB27
:10522000030E22BFB61A754640EA9C005B084FEA9F
:105230003202B6EB020E75EB030E22BFB61A7546AC
:1052400040EADC0055EA060E18D04FEA051545EA9B
:1052500016754FEA06164FEAC30343EA52734FEA44
:10526000C2025FEA1C1CC0D111F4801F0BD141EABD
:1052700000014FF000004FF0004CB6E711F4801F22
:1052800004BF01430020B4F1FD0C88BFBCF5E06F02
:105290003FF6AFAEB5EB030C04BFB6EB020C5FEA12
:1052A000500C50F1000041EB045170BD0EF0004E67
:1052B0004EEA113114EB5C04C2BFD4EB0C0541EA99
:1052C000045170BD41F480114FF0000E013C90E696
:1052D00045EA060E8DE60CEA135594EA0C0F08BF5A
:1052E00095EA0C0F3FF43BAF94EA0C0F0AD150EA59
:1052F00001347FF434AF95EA0C0F7FF425AF1046EC
:1053000019462CE795EA0C0F06D152EA03353FF413
:10531000FDAE1046194622E750EA410618BF52EA90
:1053200043067FF4C5AE50EA41047FF40DAF52EA64
:1053300043057FF4EBAE12E74FEA4102B2F1E043DE
:1053400024BFB3F5001CDCF1FE5C0DD901F0004C6C
:105350004FEAC0024CEA5070B2F1004F40EB8300BC
:1053600008BF20F00100704711F0804F21D113F1E8
:105370003872BCBF01F00040704741F480114FEA21
:105380005252C2F11802C2F1200C10FA0CF320FAAA
:1053900002F018BF40F001004FEAC1234FEAD323C7
:1053A00003FA0CFC40EA0C0023FA02F34FEA430331
:1053B000CCE77FEA625307D150EA01331EBF4FF0BA
:1053C000FE4040F44000704701F0004040F0FE40D5
:1053D00040F40000704700BF80F0004002E000BFD2
:1053E00081F0004142001FBF5FEA410392EA030FD0
:1053F0007FEA226C7FEA236C6AD04FEA1262D2EB1A
:105400001363C1BFD218414048404140B8BF5B421E
:10541000192B88BF704710F0004F40F4000020F0B7
:105420007F4018BF404211F0004F41F4000121F0CD
:105430007F4118BF494292EA030F3FD0A2F1010217
:1054400041FA03FC10EB0C00C3F1200301FA03F155
:1054500000F0004302D5494260EB4000B0F5000F78
:1054600013D3B0F1807F06D340084FEA310102F137
:105470000102FE2A51D2B1F1004F40EBC25008BFE9
:1054800020F0010040EA03007047490040EB0000B3
:1054900010F4000FA2F10102EDD1B0FA80FCACF1E2
:1054A000080CB2EB0C0200FA0CF0AABF00EBC250E1
:1054B00052421843BCBFD0401843704792F0000FCF
:1054C00081F4000106BF80F400000132013BB5E722
:1054D0004FEA41037FEA226C18BF7FEA236C21D098
:1054E00092EA030F04D092F0000F08BF08467047FD
:1054F00090EA010F1CBF0020704712F07F4F04D1CB
:10550000400028BF40F00040704712F100723CBFDD
:1055100000F50000704700F0004343F0FE4040F407
:10552000000070477FEA226216BF08467FEA2363C5
:105530000146420206BF5FEA412390EA010F40F4B0
:10554000800070474FF0000304E000BF10F00043FC
:1055500048BF40425FEA000C08BF704743F09643E3
:1055600001464FF000001CE050EA010208BF7047FE
:105570004FF000030AE000BF50EA010208BF704785
:1055800011F0004302D5404261EB41015FEA010C9A
:1055900002BF84460146002043F0B64308BFA3F192
:1055A0008053A3F50003BCFA8CF2083AA3EBC25374
:1055B00010DB01FA02FC634400FA02FCC2F1200293
:1055C000BCF1004F20FA02F243EB020008BF20F0CA
:1055D0000100704702F1200201FA02FCC2F1200230
:1055E00050EA4C0021FA02F243EB020008BF20EA25
:1055F000DC7070474FF0FF0C1CEAD0521EBF1CEA53
:10560000D15392EA0C0F93EA0C0F6FD01A4480EA40
:10561000010C400218BF5FEA41211ED04FF0006329
:1056200043EA501043EA5111A0FB01310CF0004055
:10563000B1F5000F3EBF490041EAD3715B0040EA7B
:10564000010062F17F02FD2A1DD8B3F1004F40EB4B
:10565000C25008BF20F00100704790F0000F0CF01E
:10566000004C08BF49024CEA502040EA51207F3AE2
:10567000C2BFD2F1FF0340EAC250704740F40000BD
:105680004FF00003013A5DDC12F1190FDCBF00F0AE
:1056900000407047C2F10002410021FA02F1C2F15C
:1056A000200200FA02FC5FEA310040F1000053EAF8
:1056B0004C0308BF20EADC70704792F0000F00F046
:1056C000004C02BF400010F4000F013AF9D040EA4C
:1056D0000C0093F0000F01F0004C02BF490011F4E0
:1056E000000F013BF9D041EA0C018FE70CEAD153DE
:1056F00092EA0C0F18BF93EA0C0F0AD030F0004C5E
:1057000018BF31F0004CD8D180EA010000F0004011
:10571000704790F0000F17BF90F0004F084691F0CF
:10572000000F91F0004F14D092EA0C0F01D1420209
:105730000FD193EA0C0F03D14B0218BF084608D1D2
:1057400080EA010000F0004040F0FE4040F400001C
:10575000704740F0FE4040F4400070474FF0FF0CAF
:105760001CEAD0521EBF1CEAD15392EA0C0F93EAF6
:105770000C0F69D0A2EB030280EA010C49024FEA48
:10578000402037D04FF0805343EA111143EA101301
:105790000CF000408B4238BF5B0042F17D024FF4B9
:1057A000000C8B4224BF5B1A40EA0C00B3EB510F94
:1057B00024BFA3EB510340EA5C00B3EB910F24BF7D
:1057C000A3EB910340EA9C00B3EBD10F24BFA3EB02
:1057D000D10340EADC001B0118BF5FEA1C1CE0D1CA
:1057E000FD2A3FF650AF8B4240EBC25008BF20F07D
:1057F000010070470CF0004C4CEA50207F32C2BFD1
:10580000D2F1FF0340EAC250704740F400004FF06D
:105810000003013A37E792F0000F00F0004C02BF9E
:10582000400010F4000F013AF9D040EA0C0093F068
:10583000000F01F0004C02BF490011F4000F013BC2
:10584000F9D041EA0C0195E70CEAD15392EA0C0F2A
:1058500008D142027FF47DAF93EA0C0F7FF470AF62
:10586000084676E793EA0C0F04D14B023FF44CAFA5
:1058700008466EE730F0004C18BF31F0004CCAD13A
:1058800030F000427FF45CAF31F000437FF43CAF76
:105890005FE700BF42000ED2B2F1FE4F0BD34FF0D4
:1058A0009E03B3EB126209D44FEA002343F0004396
:1058B00023FA02F070474FF00000704712F1610FB9
:1058C00001D1420202D14FF0FF3070474FF000008B
:1058D000704700BF70B50E4B0E4CE41AA4100025A3
:1058E0001E46A54204D056F8253098470135F8E702
:1058F000FCF7E0FB084C094BE41AA41000251E46F7
:10590000A54204D056F8253098470135F8E770BD18
:10591000447B0008447B0008447B0008447B00086B
:1059200010B5431E0A44914204D011F8014B03F80C
:10593000014FF8E710BD02440346934202D003F83A
:10594000011BFAE770472DE9F04788B0002B149F40
:105950001299109DDDF84CA01E46B8BF06F1004319
:1059600027F02007B6BF1E4600232D23462F1446DE
:105970000B7003D0452F03D1013501E0032300E074
:1059800002238DE8280406AB039307AB0493224659
:10599000334600F01DFD472F804602D1119BDB07E7
:1059A00026D5462F08EB050911D198F80030302B89
:1059B0000AD1204631460022002302F069F818B9C6
:1059C000C5F10105CAF80050DAF8003099442046C4
:1059D00031460022002302F05BF808B1CDF81C909C
:1059E000079B4B4504D25A1C079230221A70F7E7E6
:1059F000079B159AC8EB03034046136008B0BDE847
:105A0000F08773B503460029B8BF494203F8022B5B
:105A1000B4BF2D222B220929427019DD0DF1070494
:105A200026460A2291FBF2F502FB15113031092DB1
:105A300004F8011D2946F4DC3031651E04F8011C10
:105A4000B5421A460AD215F8012B03F8012BF7E7E5
:105A500030241A46214402F8024B5970101A02B041
:105A600070BD00002DE9F04F91B08B4615461E46E3
:105A70001A9F044601F06CFAD0F800A0504600F0DE
:105A800011FC00230E933B680990073323F00703B2
:105A9000D3E9000103F108029BF818803A60CBE9D2
:105AA000120100F0B3FB0128DBE9120119D1002239
:105AB000002301F0F7FF10B12D238BF84330A04BEA
:105AC000A04FB8F1470F88BF1F460323CBF8103013
:105AD000DBF8003023F00403CBF800304FF000096E
